:100000000C940A010C94930B0C94BA0B0C94950568
:100010000C9495050C9495050C9432010C943201C6
:100020000C9432010C9432010C9432010C94320184
:100030000C9432010C9432010C9432010C94320174
:100040000C94E10B0C9432010C94940E0C94C60E9B
:100050000C9432010C9432010C9432010C94320154
:100060000C9432010C9432019D09B009C009D309E6
:10007000DB09070A0F0A170A1F0A260A260A260A98
:10008000260A260A260A260A260A260A260A260AF0
:10009000260A260A260A260A260A260A260A260AE0
:1000A000260A260A260A260A9D09A909B009C009B6
:1000B000D309DB09EE09F609FE0900000008000279
:1000C000010000030407000000000000000001021E
:1000D00004081020408001020408102001020408D6
:1000E00010200404040404040404020202020202B4
:1000F000030303030303000000002300260029007C
:1001000000000000250028002B0000000000240053
:1001100027002A0000407A10F35A00A0724E1809F6
:100120000010A5D4E80000E87648170000E40B545E
:10013000020000CA9A3B000000E1F505000080962D
:100140009800000040420F000000A086010000005F
:10015000102700000000E803000000006400000019
:1001600000000A00000000000100000000002C76E2
:10017000D888DC674F0823DFC1DFAE59E1B1B796FD
:10018000E5E3E453C63AE651997696E8E6C284265A
:10019000EB898C9B62ED407C6FFCEFBC9C9F40F236
:1001A000BAA56FA5F490055A2AF75C936B6CF967B2
:1001B0006DC11BFCE0E40D47FEF520E6B500D0ED77
:1001C000902E0300943577050080841E08000020DF
:1001D0004E0A000000C80C333333330F986E12837D
:1001E0001141EF8D2114893BE65516CFFEE6DB1851
:1001F000D1844B381BF77C1D901DA4BBE424203216
:1002000084725E228100C9F124ECA1E53D277201D0
:10021000F60EB60111241FBECFEFD8E0DEBFCDBF72
:1002200011E0A0E0B1E0E4E9FFE202C005900D9228
:10023000A23FB107D9F724E0A2EFB1E001C01D92BF
:10024000A037B207E1F712E0C2E1D2E004C0229782
:10025000FE010E948B12CE30D107C9F70E941E11F9
:100260000C94BD170C94000081E08093F601089572
:1002700060E082E00E94E60C60E08BE00E94E60C09
:1002800043E050E064E371E080E00E94730B109261
:10029000F70160E08BE00E941F0D60ED77E080E0E9
:1002A00090E00E945A0C61E08BE00E941F0D68EB09
:1002B0007BE080E090E00E945A0C26E040E855E2A6
:1002C00060E070E08FEC93E00E94380E68EE73E01F
:1002D00080E090E00E945A0C6AE071E08FEC93E0BD
:1002E0000C949D0F0F931F93CF93DF938FE093E0B8
:1002F0000E94280720E04FE06EE080EF92E00E942D
:10030000680620E046E065E081ED92E00E94680624
:1003100020E04AE064E082EB92E00E946806CEEFC3
:10032000D1E08E010E5E1F4F65EE71E0CE010E949E
:100330001D102696C017D107B9F782E0C23BD80737
:1003400081F765EE71E088EF91E00E941D100E9438
:100350002B0C6093F2017093F3018093F40190935E
:10036000F501DF91CF911F910F910895CF93DF9306
:1003700088EF91E00E94AF0FC2EBD2E02697CE014A
:100380000E94AF0F81E0CE3FD807C1F782EB92E029
:100390000E940F0681ED92E00E940F0680EF92E02E
:1003A000DF91CF910C940F06BC0182EB92E00E948A
:1003B0008B0F82EB92E00E943E05892B11F161E2E6
:1003C00071E08FEC93E00E94850F82EB92E00E9437
:1003D0003E05892B81F082EB92E00E94B004E0910F
:1003E000CF03F091D0030190F081E02D682F8FECC6
:1003F00093E00995EACF6AE271E08FEC93E00E9406
:100400009D0F60ED77E080E090E00C945A0C4F92E5
:100410005F926F927F928F929F92AF92BF92CF9294
:10042000DF92EF92FF920F931F93CF93DF93CDB79D
:10043000DEB7C055D1090FB6F894DEBF0FBECDBFF1
:1004400065EE71E0CE01CF960E941D1065EE71E061
:10045000CE01C9960E941D1065EE71E0CE01C396D3
:100460000E941D1065EE71E0CE018D960E941D1058
:1004700065EE71E0CE0187960E941D100EEF11E02F
:10048000E12CF12C65EE71E0C8010E94DE108111B3
:100490000BC02FEFE21AF20A0E5E1F4F8AE0E81639
:1004A000F10481F7E12CF12C0E942B0C0091F20158
:1004B0001091F3012091F4013091F501601B710B53
:1004C000820B930B60367A4E8105910508F0A5C129
:1004D0008091F6018111A1C140E855E260E070E031
:1004E00081ED92E00E94980668EE73E080E090E073
:1004F0000E945A0C6AE871E081ED92E00E949D0F23
:1005000081ED92E00E943E05892B39F16CE271E0A9
:100510008FEC93E00E94850FA12C612C712C412C53
:10052000912C10E0812C92E1B92E81ED92E00E9495
:100530003E05892B91F081ED92E00E94B004582E87
:1005400066E371E0CE01CF960E94DE10882309F4A5
:1005500078C189E258127BC174C181ED92E07AC002
:1005600080EF92E00E94B004682F8FE093E00E9439
:100570002F0A811111E080EF92E00E943E05892B45
:1005800079F70E942B0C6C197D098E099F09683E32
:1005900073408105910578F3112309F459C09E0138
:1005A0002B5B3F4FAE01475B5F4FBE01635B7F4FED
:1005B0008FE093E00E94050B61966CAD7DAD8EAD32
:1005C0009FAD61978E01055F1F4F25E043E00E94BC
:1005D000C5122D966CAD7DAD8EAD9FAD2D970A5099
:1005E000110925E043E00E94C512B801CE014596ED
:1005F0000E941D10BE01655F7F4FCE0181960E9453
:100600001D10BE016F5D7F4FCE014B960E944A10B8
:100610006FE371E0CE014B960E94C410BE016B5E89
:100620007F4F0E94B11061E471E00E94C410BC01D0
:10063000CE0187960E943310CE014B960E94AF0FD9
:10064000CE0181960E94AF0FCE0145960E94AF0F5A
:1006500080EF92E00E94260765EE71E088EF91E05E
:100660000E9453100EEF11E065EE71E0C8010E9488
:10067000DE10811126C0B801CE0101960E944A10F9
:100680006FE371E0CE0101960E94C410B8016A5F69
:100690007F4F0E94B1106FE371E00E94C410B80157
:1006A000645F7F4F0E94B11061E471E00E94C4104A
:1006B000BC0188EF91E00E949710CE0101960E9444
:1006C000AF0F0E5E1F4F82E0023B180769F6BE01B6
:1006D000695D7F4F88EF91E00E94971068EF71E0AD
:1006E0008FEC93E00E948B0F8091F601882309F430
:1006F00068C063E471E08FEC93E00E949D0F40E8D6
:1007000055E260E070E082EB92E00E94980668EEAD
:1007100073E080E090E00E945A0CBE01695D7F4F5B
:1007200088EF91E00E94971060E571E08FEC93E014
:100730000E949D0F6FE571E0CE0101960E941D1091
:10074000CE0101960E94D401CE0101960E94AF0F06
:1007500068EE73E080E090E00E945A0C69E671E078
:10076000CE0101960E941D10CE0101960E94D40177
:10077000CE0101960E94AF0F68EE73E080E090E03A
:100780000E945A0C68EF71E082EB92E00E94770FB2
:1007900068EE73E080E090E00E945A0C6AE182EB20
:1007A00092E00E94D10468EE73E080E090E00E9445
:1007B0005A0C60E871E08FEC93E00E949D0F10925C
:1007C000F601CE0187960E94AF0FCE018D960E9452
:1007D000AF0FCE01C3960E94AF0FCE01C9960E9403
:1007E000AF0FCE01CF960E94AF0FC05BDF4F0FB6A9
:1007F000F894DEBF0FBECDBFDF91CF911F910F9157
:10080000FF90EF90DF90CF90BF90AF909F908F9030
:100810007F906F905F904F90089540E855E260E0C0
:1008200070E080EF92E00E94980668EE73E080E04E
:1008300090E00E945A0C0E942B0C6B017C0110E08E
:10084000A0CE652DCE01CF960E949E106ECE882040
:1008500089F111112FC022E2521226C08EEFC82E4C
:1008600081E0D82E00E010E0BE01675C7F4FC6013A
:100870000E94191197FF70C00F5F1F4F82E1C80ED1
:10088000D11C0A30110581F7A1101BC0BE9C90013C
:10089000BF9C300D1124BE01675C7F4FC90182509F
:1008A0009E4F0E9433100DC0652DCE01C9960E9447
:1008B0009E102BC022E2521202C08824839411237E
:1008C00021F19920D1F0411018C08CE258120FC0CC
:1008D000BE9C9001BF9C300D1124BE016D5C7F4F0A
:1008E000C9018C5F9D4F0E94331011E011C0652D2E
:1008F000CE01C3960E949E1003C02CE2521611F046
:1009000011E003C011E099249394442009F40DCE22
:100910007720D1F0611018C082E258120FC0BE9C3F
:10092000C001BF9C900D1124BE01635D7F4F865FA7
:100930009D4F0E9433106624639409C0652DCE013B
:100940008D960E949E1005C022E2521202C07724AA
:10095000739444244394E9CD7801AA24A394B1CF9D
:100960002091C4033091C50328173907B9F4909139
:10097000820380918303981789F0E0918203F0E06D
:10098000EC57FC4F80812091820330E02F5F3F4F76
:100990002F7333272093820390E008958FEF9FEF0A
:1009A00008951F93CF93DF93DC015C968D919C910A
:1009B0005D97009749F481E090E013969C938E93A5
:1009C000129780E090E03BC05196ED91FC915297D8
:1009D00050962C915097322F30951FB75E964C91C0
:1009E0005E9741FB772770F941FD6095F89440814F
:1009F000772311F0422B01C043234083EC01219760
:100A0000F1F748E0508160FF02C0522B01C0532330
:100A10005083EC012197F1F76695415099F7808159
:100A2000772311F0832301C0822B80831FBF5C9644
:100A30008D919C915D970197F1F781E090E0DF91B6
:100A4000CF911F91089508952091C4033091C5035B
:100A50002817390781F490918203809183039817B6
:100A600051F0E0918203F0E0EC57FC4F8081992730
:100A700087FD909508958FEF9FEF08952091C4030F
:100A80003091C5032817390771F4809183032091B1
:100A9000820390E0805C9F4F821B910960E470E0CC
:100AA0000E943412089580E090E00895E091C4031C
:100AB000F091C503E817F90769F4A389B4899C91FB
:100AC0008589809589238C931092C5031092C40365
:100AD00081E0089580E00895CF93DF93EC018A8D43
:100AE0009B8D892BF1F08091C4039091C5038C17E5
:100AF0009D07B9F0009711F00E9456058E8D8E7FEC
:100B00008E8F1092830310928203D093C503C093FB
:100B1000C403EB89FC8980819D89892B808381E0D6
:100B200001C080E0DF91CF9108951F920F920FB620
:100B30000F9211242F933F934F935F936F937F9363
:100B40008F939F93AF93BF93EF93FF93E091C40371
:100B5000F091C503309709F451C0868DA685B785FD
:100B6000958581FF04C08C91892329F447C08C911D
:100B7000892309F043C0A389B4899C918589809514
:100B800089238C93868997890197F1F7208D318D80
:100B9000A685B785758558E040E0C9010197F1F752
:100BA000842F90E095958795482F6C91672309F0E5
:100BB0004068515091F7868D81FD40958091830367
:100BC00090E001968F73992720918203281749F0AE
:100BD000A0918303B0E0AC57BC4F4C938093830348
:100BE00003C0868D8160868F828D938D0197F1F78A
:100BF000A389B4898C919589892B8C93FF91EF916E
:100C0000BF91AF919F918F917F916F915F914F9124
:100C10003F912F910F900FBE0F901F90189527E9CD
:100C200031E0FC01318320830C9456051F93CF9350
:100C3000DF93EC01162F6E8D6695617081E0682759
:100C4000812F0E941F0D61E0812F0E94E60C812FF1
:100C500090E0FC01E253FF4FE491E88BFC01EE5180
:100C6000FF4FE491F0E0EE0FFF1FE050FF4F859142
:100C700094919A8B898BDF91CF911F9108951F9347
:100C8000CF93DF93EC01162F60E0812F0E94E60CDA
:100C90008E8D81FD04C061E0812F0E941F0D1C8795
:100CA000812F90E0FC01E253FF4FE491ED87FC01BE
:100CB000EE51FF4FE491F0E0EE0FFF1FEA50FF4FBF
:100CC000859194919F878E87DF91CF911F91089591
:100CD000FF920F931F93CF93DF93EC01F62E522FC9
:100CE0001B821A8208EE13E020E030E00C831D83A3
:100CF0002E833F8387E991E0998388831F8A1E8A28
:100D0000198E188E1B8E1A8E1D8E1C8E8E8D8E7FC8
:100D100050FB81F98E8F642FCE010E9416066F2D35
:100D2000CE01DF91CF911F910F91FF900C943F0660
:100D3000CF93DF93EC019A01AB011B8E1A8E198EB3
:100D4000188E1F8A1E8A60E874E88EE190E00E9487
:100D50006A12C9012430310520F0B90163507109CC
:100D600002C061E070E07D8F6C8FEC85E63108F0A9
:100D700068C0B901769567956431710518F06351C3
:100D8000710902C061E070E07F8B6E8B069718F0EE
:100D9000C901059702C081E090E0998F888FC90151
:100DA000880F991F820F931F969587959695879523
:100DB0008D30910510F00C9702C081E090E09B8F80
:100DC0008A8F20916800E83050F091E0EE3008F40E
:100DD00090E081E001C0880F9A95EAF701C084E0B5
:100DE000822B809368002C85283038F02E3040F01C
:100DF000263148F48CE690E008C08DE690E005C00E
:100E00008BE690E002C080E090E09C8B8B8B2830DA
:100E100030F481E001C0880F2A95EAF70DC0822FD7
:100E200090E02E3010F4089701C00E9791E001C0B9
:100E3000990F8A95EAF7892F8D8B8C8D9D8D01975F
:100E4000F1F7CE01DF91CF910C946C050C9456050F
:100E50000F931F93FC010FEF1FEF98010083118385
:100E60002283338310861186128613864FEF59EC46
:100E70006AE97BE3408B518B628B738B408F518F80
:100E8000628F738F40A351A362A373A340A751A79E
:100E900062A773A740AB51AB62AB73AB00AF11AFAE
:100EA00022AF33AFDC01A05CBF4F8FEF90E0119613
:100EB0009C938E9314960D931D932D933C931397AF
:100EC00018960D931D932D933C93139718961C928F
:100ED00011961C92509682E08C9311961C9211965A
:100EE0001C9211961C9211961D921D921D921C929D
:100EF0001397149611961C921E9212961D921C9294
:100F0000EA5AFF4F10821F910F9108952FEB260F81
:100F1000862F992787FD9095263010F4C79708955E
:100F20006156663018F4875591090895C097089561
:100F30000F931F93FB0160E070E0CB01019120ED66
:100F4000200F2A30A0F4AAE0B0E09B01AC010E947F
:100F50008F12112707FD1095212F312F600F711F60
:100F6000821F931F6053710981099109E7CF1F9177
:100F70000F9108950F931F93CF93FC01EA5AFF4FEF
:100F8000C1E020812D3219F0C0E08F0103C08C0137
:100F9000095A1F4FB8010E9498079B01AC01A4E6B3
:100FA000B0E00E948F12F801DF01219130ED320F85
:100FB0003A30D0F32E3269F511962C91119730ED1D
:100FC000320F3A3030F5332727FD30952053310961
:100FD0004AE0429F8001439F100D1124222717FDF4
:100FE0002095322F600F711F821F931F12960C9154
:100FF00020ED200F2A3068F4112707FD10950053CB
:101000001109222717FD2095322F600F711F821FB3
:10101000931FCC2339F090958095709561957F4F03
:101020008F4F9F4FCF911F910F9108954F925F92D5
:101030006F927F928F929F92AF92BF92CF92DF92E8
:10104000EF92FF92CF93DF93EC01CA5ADF4FBE01BC
:101050000E9498072B013C0124E630E040E050E07C
:101060000E9448129B01AC0160EA76E881E090E0C2
:101070000E9424126B017C01FE01819190ED980F7A
:101080009A30D8F38E3219F5EF0180E1882E87E28D
:10109000982EA12CB12CA99180ED8A0F8A30B8F43A
:1010A000BB27A7FDB095D097A50194010E949A1285
:1010B000C60ED71EE81EF91EC501B4012AE030E0B5
:1010C00040E050E00E94481249015A01E4CFC701B4
:1010D000B6016D5F7F4F8F4F9F4F26E030E040E0BD
:1010E00050E00E94481269017A01C301B20124E66E
:1010F00030E040E050E00E94481260E472E48FE08B
:1011000090E00E942412C60ED71EE81EF91EC701E9
:10111000B601DF91CF91FF90EF90DF90CF90BF901D
:10112000AF909F908F907F906F905F904F900895B9
:10113000DB01FA018D91882319F091918917D1F380
:10114000992787FD90950895CF92DF92EF92FF92B5
:101150001F93CF93DF93EC01FC01EB5AFF4F1081FB
:10116000112309F4A9C0319660810E948607182FC7
:10117000FE01E95AFF4F6081CE010E94860740E1DF
:10118000149F800D1124FE01EC5AFF4F90818913AA
:101190008AC074961081112309F458C13596808154
:1011A0009181019691838083B59780819181A281FD
:1011B000B381349780839183A283B3833C968081EB
:1011C0009181A281B381349780839183A283B38379
:1011D000799680818823A1F1813009F037C18C8113
:1011E0009D81AE81BF8188839983AA83BB838C85CF
:1011F0009D85AE85BF8588879987AA87BB878C899F
:101200009D89AE89BF89888B998BAA8BBB8B8C8D6E
:101210009D8DAE8DBF8D888F998FAA8FBB8F8CA52A
:101220009DA5AEA5BFA588A799A7AAA7BBA78CA96E
:101230009DA9AEA9BFA988AB99ABAAABBBAB06C1B0
:101240008CA19DA1AEA1BFA188A399A3AAA3BBA372
:101250008C819D81AE81BF8188839983AA83BB8362
:101260008C899D89AE89BF89888B998BAA8BBB8B12
:101270008C8D9D8DAE8DBF8D888F998FAA8FBB8FE2
:10128000FE01E05CFF4FDE01AE5BBF4F8D919C9194
:10129000918380838CAD9DADAEADBFAD88AF99AF6E
:1012A000AAAFBBAFD3C0C159DF4F888199810196E6
:1012B0009983888310E0CAC0FC01EA59FF4F30814E
:1012C0008B599F4F7C0131111DC06E0196E5C90EEF
:1012D000D11C43EA51E0B601CE010E949808892B47
:1012E00011F481E00CC049EA51E0B601CE010E9440
:1012F0009808892B19F4F7011082A8C082E0D70161
:101300008C93A4C0DC01EC91E23009F49FC0CE01C3
:101310008A5A9F4FDC012C91222309F497C0B0E236
:10132000EB9FF0011124E32B3197E932F10508F02E
:101330008DC0EC5CFF4F0C948912CE010E94BA075D
:101340006C837D838E839F830E942B0CC85BDF4F51
:1013500012C0C859DF4F81E0213409F05DC05DC083
:10136000CE010E9416086C8B7D8B8E8B9F8B0E940A
:101370002B0CC05BDF4F688379838A839B8366C0B5
:10138000233509F063C08C899D89AE89BF89B095EA
:10139000A095909581959F4FAF4FBF4F8C8B9D8BA4
:1013A000AE8BBF8B53C0CE010E9416086C8F7D8F11
:1013B0008E8F9F8F4BC0273509F048C08C8D9D8D37
:1013C000AE8DBF8DB095A095909581959F4FAF4FF5
:1013D000BF4F8C8F9D8FAE8FBF8F38C0CE010E94C4
:1013E000BA076CA77DA78EA79FA730C0CE010E9429
:1013F000BA076CAB7DAB8EAB9FAB28C0BC01CE01F6
:101400000E9498076C877D878E879F871FC0C85969
:10141000DF4F81E021330CF480E0888317C00E9405
:10142000D714CE5BDF4F9927998388830FC0CE01F5
:101430000E94BA076CAF7DAF8EAF9FAF07C0CE01E1
:101440000E94BA076CA37DA38EA39FA3812FDF9177
:10145000CF911F91FF90EF90DF90CF900895CF92A2
:10146000DF92EF92FF920F931F93CF93DF931F9220
:10147000CDB7DEB76C01262FFC01E759FF4F408145
:101480005181628173814F5F5F4F6F4F7F4F408308
:101490005183628373838C0109591F4F8B5A9F4F6D
:1014A0007C01243281F12CF42A3069F02D30E9F5E9
:1014B0000AC02A3241F02C32C1F5F601EC5AFF4F36
:1014C000808182278083F80180818F3060F4F6016B
:1014D000E80FF11DEA5AFF4F1082C60129830E94CE
:1014E000A408298101C080E0F601EA59FF4F9081EC
:1014F0009F5F9083F801108291E02A3209F090E01A
:10150000F70190832AC0F8011082F601EA59FF4FD3
:10151000108272971082719682E08083F7011082A8
:10152000F601E859FF4F108217C0F80180818E3014
:1015300048F491E0980F9083F601E80FF11DEA5A04
:10154000FF4F2083F7018081811106C0F601EC5A1C
:10155000FF4F80818227808380E00F90DF91CF91C1
:101560001F910F91FF90EF90DF90CF900895CF9251
:10157000DF92EF92FF920F931F93CF93DF93E901D6
:101580006115710551F0FC01C088D188E288F388AB
:10159000FB01C082D182E282F3824115510551F0F4
:1015A000FC01C08CD18CE28CF38CFA01C082D18218
:1015B000E282F382209701F18C01045B1F4FF80156
:1015C00080819181A281B3818F3F9F4FAF4FBF4FE9
:1015D00061F00E942B0CF80100811181228133817E
:1015E000601B710B820B930B03C06FEF7FEFCB017E
:1015F000688379838A839B83DF91CF911F910F91B9
:10160000FF90EF90DF90CF900895AF92BF92CF926E
:10161000DF92EF92FF920F931F93CF93DF93CDB79B
:10162000DEB728970FB6F894DEBF0FBECDBF5B01C3
:101630008A01AE014F5F5F4FBE016B5F7F4F0E941B
:10164000B70ACD80DE80EF80F8848FEFC81689EC72
:10165000D8068AE9E8068BE3F80659F0C701B60117
:101660000E94981120E034E244E759E40E942E11D0
:1016700004C060E070E08AE794E4F5016083718360
:1016800082839383FFEFCF16F9ECDF06FAE9EF06CA
:10169000FBE3FF0669F069817A818B819C810E945E
:1016A000981120E034E244E759E40E942E1104C06E
:1016B00060E070E08AE794E4F801608371838283DC
:1016C000938328960FB6F894DEBF0FBECDBFDF918F
:1016D000CF911F910F91FF90EF90DF90CF90BF902F
:1016E000AF90089508958230E8F4E82FF0E0EE0F0F
:1016F000FF1FEA5FFE4F71836083813041F080916C
:1017000069008C7F842B80936900E89A089580910A
:101710006900440F551F440F551F837F842B80930E
:101720006900E99A08951F920F920FB60F92112443
:101730002F933F934F935F936F937F938F939F93D9
:10174000AF93BF93EF93FF93E0910601F0910701F0
:101750000995FF91EF91BF91AF919F918F917F91EB
:101760006F915F914F913F912F910F900FBE0F900E
:101770001F9018951F920F920FB60F9211242F935E
:101780003F934F935F936F937F938F939F93AF9309
:10179000BF93EF93FF93E0910801F0910901099540
:1017A000FF91EF91BF91AF919F918F917F916F9139
:1017B0005F914F913F912F910F900FBE0F901F900F
:1017C00018951F920F920FB60F9211242F933F93EB
:1017D0008F939F93AF93BF938091C7039091C8035A
:1017E000A091C903B091CA033091C60326E0230F2C
:1017F0002D3720F40296A11DB11D05C029E8230F45
:101800000396A11DB11D2093C6038093C703909337
:10181000C803A093C903B093CA038091CB039091EE
:10182000CC03A091CD03B091CE030196A11DB11DB3
:101830008093CB039093CC03A093CD03B093CE03BE
:10184000BF91AF919F918F913F912F910F900FBEBC
:101850000F901F9018952FB7F8946091C70370915F
:10186000C8038091C9039091CA032FBF08953FB761
:10187000F8948091CB039091CC03A091CD03B091CB
:10188000CE0326B5A89B05C02F3F19F00196A11DD8
:10189000B11D3FBF6627782F892F9A2F620F711DC8
:1018A000811D911D43E0660F771F881F991F4A9580
:1018B000D1F70895CF92DF92EF92FF92CF93DF930B
:1018C0006B017C010E94370CEB01C114D104E104CF
:1018D000F10489F00E942D110E94370C6C1B7D0BC6
:1018E000683E734090F381E0C81AD108E108F1081E
:1018F000C851DC4FEACFDF91CF91FF90EF90DF909E
:10190000CF900895789484B5826084BD84B5816059
:1019100084BD85B5826085BD85B5816085BDEEE6F7
:10192000F0E0808181608083E1E8F0E010828081D6
:1019300082608083808181608083E0E8F0E0808144
:1019400081608083E1EBF0E0808184608083E0EB64
:10195000F0E0808181608083EAE7F0E0808184604C
:10196000808380818260808380818E7F808380817C
:10197000806880831092C1000895833081F028F43C
:10198000813099F08230A1F008958730A9F0883035
:10199000B9F08430D1F4809180008F7D03C08091B4
:1019A00080008F7780938000089584B58F7702C080
:1019B00084B58F7D84BD08958091B0008F7703C07A
:1019C0008091B0008F7D8093B0000895CF93DF9316
:1019D00090E0FC01E253FF4F2491FC01EE51FF4FD8
:1019E0008491882349F190E0880F991FFC01E65FFC
:1019F000FE4FA591B49180509F4FFC01C591D491A9
:101A00009FB7611108C0F8948C91209582238C9324
:101A1000888182230AC0623051F4F8948C91322F6D
:101A2000309583238C938881822B888304C0F8941B
:101A30008C91822B8C939FBFDF91CF9108950F9350
:101A40001F93CF93DF931F92CDB7DEB7282F30E0DF
:101A5000F901E654FF4F8491F901E253FF4F1491CD
:101A6000F901EE51FF4F04910023C9F0882321F0C2
:101A700069830E94BD0C6981E02FF0E0EE0FFF1F2B
:101A8000E050FF4FA591B4919FB7F8948C916111EC
:101A900003C01095812301C0812B8C939FBF0F90B1
:101AA000DF91CF911F910F910895FC01818D228DBF
:101AB00090E0805C9F4F821B91098F739927089556
:101AC000FC01918D828D981731F0828DE80FF11D08
:101AD000858D90E008958FEF9FEF0895FC01918D23
:101AE000828D981761F0828DDF01A80FB11D5D9680
:101AF0008C91928D9F5F9F73928F90E008958FEFEE
:101B00009FEF08958CEE9EE0892B49F080E090E0F5
:101B1000892B29F00E94EC0E81110C94000008958D
:101B2000FC01848DDF01A80FB11DA35ABF4F2C917A
:101B3000848D90E001968F739927848FA689B78949
:101B40002C93A089B1898C9180648C93938D848D22
:101B5000981306C00288F389E02D80818F7D8083F1
:101B60000895CF93DF93EC01888D8823C9F0EA892B
:101B7000FB89808185FD05C0A889B9898C9186FD86
:101B80000FC00FB607FCF5CF808185FFF2CFA88983
:101B9000B9898C9185FFEDCFCE010E94900DE7CFE2
:101BA000DF91CF910895CF92DF92FF920F931F9311
:101BB000CF93DF931F92CDB7DEB76C0181E0D601E2
:101BC00058968C9358975B969C915B975C968C91FA
:101BD0005C97981307C05096ED91FC9151978081C6
:101BE00085FD2EC0F601038D10E00F5F1F4F0F73B0
:101BF0001127F02EF601848DF81211C00FB607FCE4
:101C0000F9CFD6015096ED91FC915197808185FFD7
:101C1000F1CFC60169830E94900D6981EBCF838D5E
:101C2000E80FF11DE35AFF4F6083D6015B960C93DA
:101C30005B975296ED91FC915397808180620CC026
:101C4000D6015696ED91FC91579760835096ED9191
:101C5000FC91519780818064808381E090E00F90B7
:101C6000DF91CF911F910F91FF90DF90CF9008955A
:101C7000BF92CF92DF92EF92FF92CF93DF93EC016E
:101C80006A017B01B22E60E874E88EE190E0A70162
:101C900096010E9448122150310941095109569577
:101CA000479537952795E889F98982E08083211542
:101CB00080E1380798F0E889F989108260E472E4DD
:101CC0008FE090E0A70196010E944812215031094F
:101CD000410951095695479537952795EC85FD851E
:101CE0003083EE85FF852083188EEC89FD89B082D4
:101CF000EA89FB89808180618083EA89FB89808110
:101D000088608083EA89FB89808180688083EA8992
:101D1000FB8980818F7D8083DF91CF91FF90EF9051
:101D2000DF90CF90BF9008951F920F920FB60F9241
:101D300011242F938F939F93EF93FF93E091DF03F1
:101D4000F091E0038081E091E503F091E60382FDEC
:101D500012C090818091E8038F5F8F732091E90317
:101D6000821751F0E091E803F0E0E153FC4F958FCA
:101D70008093E80301C08081FF91EF919F918F9143
:101D80002F910F900FBE0F901F9018951F920F92DA
:101D90000FB60F9211242F933F934F935F936F933E
:101DA0007F938F939F93AF93BF93EF93FF938FECAA
:101DB00093E00E94900DFF91EF91BF91AF919F91A1
:101DC0008F917F916F915F914F913F912F910F90E4
:101DD0000FBE0F901F9018958FEC93E00E94550D49
:101DE00021E0892B09F420E0822F08951092D2037C
:101DF0001092D10388EE93E0A0E0B0E08093D3038B
:101E00009093D403A093D503B093D60387ED91E0CC
:101E10009093D0038093CF0385EC90E09093DC0304
:101E20008093DB0384EC90E09093DE038093DD03EA
:101E300080EC90E09093E0038093DF0381EC90E0EE
:101E40009093E2038093E10382EC90E09093E403AB
:101E50008093E30386EC90E09093E6038093E503A0
:101E60001092E8031092E9031092EA031092EB0338
:101E70000895CF92DF92EF92FF920F931F93CF932B
:101E8000DF937C016A01EB0100E010E00C151D05F9
:101E900071F06991D701ED91FC910190F081E02DF5
:101EA000C7010995892B19F00F5F1F4FEFCFC801AC
:101EB000DF91CF911F910F91FF90EF90DF90CF9026
:101EC00008956115710581F0DB010D900020E9F79F
:101ED000AD0141505109461B570BDC01ED91FC91BE
:101EE0000280F381E02D099480E090E00895DC0108
:101EF000ED91FC91DB0114964D915C9115976D91DC
:101F00007C910280F381E02D09940C94610F63EEC3
:101F100071E00C94610F0F931F93CF93DF93EC014B
:101F20000E94770F8C01CE010E94870F800F911FB6
:101F3000DF91CF911F910F9108950F931F93CF932E
:101F4000DF93EC010E94610F8C01CE010E94870F8C
:101F5000800F911FDF91CF911F910F910895FC0188
:101F6000808191810C947E13CF93DF93EC01888163
:101F70009981009711F00E947E13198218821D82A8
:101F80001C821B821A82DF91CF9108950F931F93B9
:101F9000CF93DF93EC018B016F5F7F4F8881998135
:101FA0000E940D14009731F0998388831B830A8364
:101FB00081E001C080E0DF91CF911F910F910895E2
:101FC000CF93DF93EC0188819981892B29F08A8155
:101FD0009B818617970760F4CE010E94C60F882365
:101FE00041F08C819D81892B19F4E881F98110825F
:101FF00081E0DF91CF910895EF92FF920F931F93AD
:10200000CF93DF93EC017B018A01BA010E94E00FBC
:10201000811104C0CE010E94B40F07C01D830C8340
:10202000B701888199810E940715CE01DF91CF9178
:102030001F910F91FF90EF900895FC011182108283
:1020400013821282158214826115710559F0FB0109
:1020500001900020E9F7AF0141505109461B570B91
:102060000C94FC0F0895CF93DF93EC01FB018617CE
:10207000970761F0608171816115710529F04481D4
:1020800055810E94FC0F02C00E94B40FCE01DF9167
:10209000CF910895FC011182108213821282158261
:1020A00014820C943310CF93DF93EC01611571050A
:1020B00061F0FB0101900020E9F7AF0141505109A7
:1020C000461B570B0E94FC0F02C00E94B40FCE01AA
:1020D000DF91CF910895EF92FF920F931F93CF93CB
:1020E000DF93EC017B010C811D816115710511F4F9
:1020F00080E016C04115510591F0040F151FB8017D
:102100000E94E00F8823A1F3288139818C819D8171
:10211000B701820F931F0E9407151D830C8381E076
:10212000DF91CF911F910F91FF90EF900895FB01E8
:1021300044815581608171810C946B10CF93DF9342
:1021400000D0CDB7DEB769831A8241E050E0BE010E
:102150006F5F7F4F0E946B100F900F90DF91CF91B8
:102160000895CF93DF93EC01FB0144815581608199
:1021700071810E946B10811103C0CE010E94B40FC7
:10218000CE01DF91CF910895CF93DF93EC016115DC
:10219000710569F0FB0101900020E9F7AF014150A2
:1021A0005109461B570B0E946B10811103C0CE01D1
:1021B0000E94B40FCE01DF91CF910895FC012481DC
:1021C0003581232B31F421E061157105A1F0FB016C
:1021D00008C0FC01808191816115710531F421E015
:1021E000FC018081882339F005C00E94FE1421E0A3
:1021F000892B09F020E0822F0895CF93DF93FC0113
:10220000848195814817590778F4C081D181FB01F9
:1022100060817181CE01840F951F0E940E15009779
:1022200019F08C1B9D0B02C08FEF9FEFDF91CF91B8
:10223000089540E050E00C94FD1008950E94820C37
:102240000E941D110E943801C2E8DDE00E940702D1
:102250002097E1F30E94820DF9CF08950CD0BAC007
:10226000B2D040F0A9D030F021F45F3F19F09BC00C
:102270005111E4C09EC0BFD098F39923C9F35523F0
:10228000B1F3951B550BBB27AA2762177307840769
:1022900038F09F5F5F4F220F331F441FAA1FA9F31F
:1022A00033D00E2E3AF0E0E830D091505040E69511
:1022B000001CCAF729D0FE2F27D0660F771F881F72
:1022C000BB1F261737074807AB07B0E809F0BB0B61
:1022D000802DBF01FF2793585F4F2AF09E3F510585
:1022E00068F061C0ABC05F3FECF3983EDCF38695CD
:1022F00077956795B795F7959F5FC9F7880F911DFB
:102300009695879597F90895E1E0660F771F881FE6
:10231000BB1F621773078407BA0720F0621B730B99
:10232000840BBA0BEE1F88F7E0950895E89409C076
:1023300097FB3EF490958095709561957F4F8F4FF8
:102340009F4F9923A9F0F92F96E9BB279395F6950E
:10235000879577956795B795F111F8CFFAF4BB0F8C
:1023600011F460FF1BC06F5F7F4F8F4F9F4F16C0F0
:10237000882311F096E911C0772321F09EE8872F7A
:10238000762F05C0662371F096E8862F70E060E036
:102390002AF09A95660F771F881FDAF7880F9695AF
:1023A000879597F9089597F99F6780E870E060E056
:1023B00008959FEF80EC089500240A9416161706DE
:1023C00018060906089500240A9412161306140626
:1023D00005060895092E0394000C11F4882352F089
:1023E000BB0F40F4BF2B11F460FF04C06F5F7F4F41
:1023F0008F4F9F4F089557FD9058440F551F59F028
:102400005F3F71F04795880F97FB991F61F09F3FE1
:1024100079F087950895121613061406551FF2CF0A
:102420004695F1DF08C0161617061806991FF1CF5A
:1024300086957105610508940895E894BB27662781
:102440007727CB0197F90895DB018F939F930E9423
:102450008F12BF91AF91A29F800D911DA39F900DF0
:10246000B29F900D1124089597FB072E16F4009447
:1024700007D077FD09D00E94A21207FC05D03EF4D8
:10248000909581959F4F0895709561957F4F089520
:10249000A1E21A2EAA1BBB1BFD010DC0AA1FBB1F68
:1024A000EE1FFF1FA217B307E407F50720F0A21BDA
:1024B000B30BE40BF50B661F771F881F991F1A9447
:1024C00069F760957095809590959B01AC01BD0171
:1024D000CF010895052E97FB1EF400940E948112EF
:1024E00057FD07D00E94481207FC03D04EF40C940D
:1024F000811250954095309521953F4F4F4F5F4F3A
:10250000089590958095709561957F4F8F4F9F4F5F
:102510000895EE0FFF1F0590F491E02D09940E949D
:10252000B612A59F900DB49F900DA49F800D911D94
:1025300011240895B7FF0C948F120E948F12821BF2
:10254000930B0895AA1BBB1B51E107C0AA1FBB1F19
:10255000A617B70710F0A61BB70B881F991F5A952F
:10256000A9F780959095BC01CD010895A29FB00177
:10257000B39FC001A39F700D811D1124911DB29FB7
:10258000700D811D1124911D0895EF920F931F93DB
:10259000CF93DF93E80147FF02C034E101C034E08C
:1025A000E42FFF27E7FDF095F7FF03C0F195E195D4
:1025B000F109E32E022F2E2FAE010E943015CE011D
:1025C000DF91CF911F910F91EF900895CF93DF93FB
:1025D0008230910510F482E090E0E0916E04F09179
:1025E0006F0420E030E0A0E0B0E0309739F14081A6
:1025F000518148175907B8F04817590771F482817B
:102600009381109729F013969C938E9312972CC068
:1026100090936F0480936E0427C02115310531F02B
:102620004217530718F0A901DB0101C0EF019A011D
:10263000BD01DF010280F381E02DD7CF21153105E7
:10264000F9F0281B390B2430310580F48A819B81F5
:102650006115710521F0FB019383828304C090937F
:102660006F0480936E04FE01329644C0FE01E20FB7
:10267000F31F8193919322503109398328833AC003
:1026800020916C0430916D04232B41F420910201C0
:102690003091030130936D0420936C04209100016C
:1026A000309101012115310541F42DB73EB740911C
:1026B000040150910501241B350BE0916C04F0914D
:1026C0006D04E217F307A0F42E1B3F0B2817390700
:1026D00078F0AC014E5F5F4F2417350748F04E0F7E
:1026E0005F1F50936D0440936C048193919302C0DB
:1026F000E0E0F0E0CF01DF91CF910895CF93DF9339
:10270000009709F487C0FC01329713821282C091AE
:102710006E04D0916F04209781F420813181280FBD
:10272000391F80916C0490916D048217930779F59D
:10273000F0936D04E0936C046DC0DE0120E030E0A6
:10274000AE17BF0750F412964D915C9113979D01FF
:102750004115510509F1DA01F3CFB383A28340811A
:102760005181840F951F8A179B0771F48D919C915D
:102770001197840F951F02969183808312968D91F5
:102780009C911397938382832115310529F4F0934B
:102790006F04E0936E043EC0D9011396FC93EE9350
:1027A00012974D915D91A40FB51FEA17FB0779F4BD
:1027B00080819181840F951F0296D90111969C9377
:1027C0008E938281938113969C938E931297E0E06F
:1027D000F0E08A819B81009719F0FE01EC01F9CFAE
:1027E000CE01029628813981820F931F20916C04BB
:1027F00030916D042817390769F4309729F4109245
:102800006F0410926E0402C013821282D0936D0482
:10281000C0936C04DF91CF910895A0E0B0E0E3E1B4
:10282000F4E10C948A17EC01CB01209719F40E9473
:10283000E612B8C0FE01E60FF71F9E0122503109D3
:10284000E217F30708F4ACC0D9010D911C91119760
:1028500006171707B8F00530110508F49FC0A80146
:10286000445051094617570708F498C002501109FF
:10287000061B170B019311936D937C93CF010E945C
:102880007E138CC05B01A01AB10A4E01800E911E0E
:10289000A0916E04B0916F04612C712C60E070E027
:1028A000109709F449C0A815B905C9F5ED90FC9039
:1028B0001197670142E0C40ED11CCA14DB0478F101
:1028C00047018A189B08640142E0C40ED11C12968D
:1028D000BC9012971396AC91B5E0CB16D10440F0A2
:1028E000B282A38391828082D9018D939C9309C087
:1028F0000E5F1F4F0E0D1F1DF90111830083EB2D7D
:10290000FA2F6115710531F0DB011396FC93EE93FC
:10291000129744C0F0936F04E0936E043FC06D9132
:102920007C9111976616770608F43B01BD0112965B
:102930000D90BC91A02DB4CF60916C0470916D048A
:1029400068157905E9F468167906D0F4409100011C
:10295000509101014115510541F44DB75EB76091A9
:10296000040170910501461B570BE417F507C0F4ED
:10297000F0936D04E0936C04F901918380830EC0A1
:102980000E94E6127C01009759F0A801BE010E9446
:10299000F514CE010E947E13C70104C0CE0102C00F
:1029A00080E090E0CDB7DEB7EEE00C94A617FC0116
:1029B00088279927E89421912032E9F3293010F0F3
:1029C0002E30C8F32B3241F02D3239F4689404C014
:1029D0000E942815820F911D219120532A30C0F3A7
:1029E0001EF4909581959F4F0895FB01DC0102C074
:1029F00001900D9241505040D8F70895FB01DC0141
:102A00008D91019080190110D9F3990B0895FB0164
:102A1000DC0101900D920020E1F70895FB01519136
:102A20005523A9F0BF01DC014D9145174111E1F794
:102A300059F4CD010190002049F04D91401541110C
:102A4000C9F3FB014111EFCF81E090E001970895B8
:102A50007AE0979F902D879F802D910D11240895E6
:102A60006F927F929F92AF92BF92CF92DF92EF923E
:102A7000FF920F931F93CF93DF93CDB7DEB72997C4
:102A80000FB6F894DEBF0FBECDBF6A01B22E102F75
:102A90000C3320F4FF24F394F00E02C04CE3F42E28
:102AA0000F2D27E0AE014F5F5F4F0E94AE16798178
:102AB000272F2970213031F0E1FC06C0E0FC06C070
:102AC00060E005C06DE203C06BE201C060E2AE2DC4
:102AD000A07173FF36C0662311F084E001C083E06B
:102AE0008B1510F4B81A01C0B12CA1110BC0F6015E
:102AF0008B2D90E2882319F091938150FBCFCB0C62
:102B0000D11CB12C662331F0F601608396012F5F52
:102B10003F4F6901C6010396E2FE05C02EE4F601AF
:102B2000208331E404C02EE6F601208331E63183B0
:102B30002283FC012B2D30E22223F1F1319321502D
:102B4000FBCF72FF40C0662311F084E001C083E038
:102B50008B1510F4B81A01C0B12CA1110BC0F601ED
:102B60008B2D90E2882319F091938150FBCFCB0CF1
:102B7000D11CB12C662331F0F601608396012F5FE2
:102B80003F4F6901C6010396E2FE07C029E4F60142
:102B900020832EE4218326E406C029E6F601208363
:102BA0002EE6218326E62283FC012B2D30E2222310
:102BB00019F031932150FBCFFC01EB0DF11D108278
:102BC0008EEF9FEFB7C0B1E0611101C0B0E04B2FB5
:102BD00050E01816190624F49C012F5F3F4F02C0E5
:102BE00021E030E0240F351F112329F0412F50E060
:102BF0004F5F5F4F02C040E050E0420F531F2B2D4C
:102C000030E04217530714F4B41A01C0B12C2E2D32
:102C1000287159F4F6012B2D30E2222319F031935B
:102C20002150FBCFCB0CD11CB12CBB2331F0F601D2
:102C3000608396012F5F3F4F6901A1110BC0F60120
:102C40002B2D30E3222319F031932150FBCFCB0CF5
:102C5000D11CB12CF80E0A81372F3071A32E74FFCE
:102C600003C0013309F4FA941F142CF42F2D2930DA
:102C700018F028E001C021E0682F392F97FF02C02B
:102C800060E030E0462F532F612C712C3EE2932EF2
:102C9000BC01621B71099B01DC01A41BB50BE1E0C7
:102CA000F0E0EC0FFD1FAE0FBF1FE12EF12CF194F1
:102CB000E194F1084F3FFFEF5F0731F4F601908296
:102CC000B6016F5F7F4F6B01841795074CF0241797
:102CD000350734F4BD01660D771DFB01118101C07C
:102CE00010E341505109FFEF6F1A7F0AB6016F5F81
:102CF0007F4F4E155F0524F0F60110836B01DACF8C
:102D00004817590739F4063320F4053319F4A11094
:102D100001C011E3F6011083FB018B2D90E28823A3
:102D200019F091938150FBCFFB01EB0DF11D108247
:102D300080E090E029960FB6F894DEBF0FBECDBFBD
:102D4000DF91CF911F910F91FF90EF90DF90CF9087
:102D5000BF90AF909F907F906F900895283008F0BB
:102D600027E03327DA01990F311D87FD9160009626
:102D70006105710539F432602E5F3D9330E32A9589
:102D8000E1F708959F3F30F080387105610509F043
:102D90003C5F3C5F3D93913008F08068911DDF936C
:102DA000CF931F930F93FF92EF92192F987F9695D1
:102DB000E92F96959695E90FFF27E259FE4F99273F
:102DC0003327EE24FF24A701E70105900894079418
:102DD00028F4360FE71EF81E491F511D660F771F96
:102DE000881F991F0694A1F70590079428F4E70E11
:102DF000F81E491F561FC11D770F881F991F661F98
:102E00000694A1F70590079428F4F80E491F561F61
:102E1000C71FD11D880F991F661F771F0694A1F742
:102E20000590079420F4490F561FC71FD81F990F0C
:102E3000661F771F881F0694A9F784911095177055
:102E400041F0D695C79557954795F794E7941A950D
:102E5000C1F7E4E1F1E06894159015913591659121
:102E6000959105907FE27395E118F10A430B560B9B
:102E7000C90BD009C0F7E10CF11E431F561FC91F33
:102E8000D01D7EF4703311F48A95E6CFE89401509A
:102E900030F0080F0AF40027021708F4202F2395BA
:102EA000022F7A3328F079E37D932A95E9F710C051
:102EB0007D932A9589F6069497956795379517958A
:102EC0001794E118F10A430B560BC90BD00998F07F
:102ED00023957E9173957A3308F070E37C932013E9
:102EE000B8F77E9170617D9330F0839571E37D93A7
:102EF00070E32A95E1F71124EF90FF900F911F9155
:102F0000CF91DF91992787FD909508952F923F9259
:102F10004F925F926F927F928F929F92AF92BF92E9
:102F2000CF92DF92EF92FF920F931F93CF93DF9395
:102F3000CDB7DEB7CA1BDB0B0FB6F894DEBF0FBEF2
:102F4000CDBF09942A88398848885F846E847D843F
:102F50008C849B84AA84B984C884DF80EE80FD8041
:102F60000C811B81AA81B981CE0FD11D0FB6F894B7
:102F7000DEBF0FBECDBFED01089512E0C2E1D2E089
:102F800004C0FE010E948B122296C431D107C9F7FA
:042F9000F894FFCFE3
:102F9400000070048000720B720B43616D707573D6
:102FA40020547261636B2050726F746F7479706512
:102FB4000052656164696E673A202200526561645B
:102FC400696E673A20002B43574C41503A28002C35
:102FD400003B00427574746F6E2050726573730009
:102FE40053656E64696E6720534D532E2E2E004137
:102FF400542B434D47463D310041542B434D4753D9
:103004003D222B31393732383534383430322200CE
:10301400534D532053656E74210041542B43574C38
:1030240041500000000000D104390F3E05B00424D3
:103034000523054750524D43004750474741004E32
:10304400004E4E4500454E450045534500535345FB
:103054000053005353570057535700574E57004ED1
:103064004E570000000000D30D390F550D6E0D6052
:103074000DB10D0D0A006E616E00696E66006F760B
:023084006600E4
:00000001FF
